:020000040800F2
:200000000006002061050008FD430008FF43000801440008034400080544000800000000CD
:200020000000000000000000000000000744000809440008000000000B4400080D44000868
:20004000B1050008B1050008B1050008B1050008B1050008B1050008B1050008B1050008B0
:20006000B1050008B1050008B1050008B1050008B1050008B1050008B1050008B105000890
:20008000B1050008B105000815440008B1050008B1050008B1050008B1050008B1050008CD
:2000A000B1050008B1050008B1050008B1050008B1050008B1050008B1050008B105000850
:2000C000B1050008B1050008B1050008B1050008B1050008B105000825440008B10500087D
:2000E000B1050008B1050008B1050008B1050008B1050008B1050008B1050008354400084D
:20010000B1050008B1050008B1050008B1050008B1050008B1050008B1050008B1050008EF
:20012000B1050008B1050008B1050008B1050008B1050008B1050008B1050008B1050008CF
:20014000B1050008B1050008B1050008B1050008B1050008B1050008B1050008B1050008AF
:20016000B1050008B1050008B1050008B1050008B1050008B1050008B1050008000000004D
:20018000B1050008B105000810B5054C237833B9044B13B10448AFF300800123237010BD41
:2001A0008C0A0020000000007447000808B5034B1BB103490348AFF3008008BD0000000071
:2001C000900A0020744700087BB972B90029BEBF00204FF0004106E008BF00281CBF6FF0EE
:2001E00000414FF0FF3000F0B9B9ADF1080C6DE904CE002909DB002B1ADB00F04DF8DDF8DD
:2002000004E0DDE9022304B07047404261EB4101002B1BDB00F040F8DDF804E0DDE90223A7
:2002200004B0404261EB4101524263EB43037047524263EB430300F02FF8DDF804E0DDE95D
:20024000022304B0404261EB41017047524263EB430300F021F8DDF804E0DDE9022304B075
:20026000524263EB4303704753B94AB9002908BF00281CBF4FF0FF314FF0FF3000F06EB9A9
:20028000ADF1080C6DE904CE00F006F8DDF804E0DDE9022304B070472DE9F047089E0D4641
:2002A00004468E46002B40F083808A42174647D9B2FA82F34BB1C3F1200105FA03FE20FA6D
:2002C00001F19F4041EA0E0E9C404FEA1748BEFBF8FC1FFA87F908FB1CE20CFB09F0210C1E
:2002E00041EA024290420AD9BA180CF1FF3180F01881904240F21581ACF1020C3A44121AE3
:20030000B2FBF8F008FB102200FB09F1A4B244EA0244A14209D93C1900F1FF3280F0038124
:20032000A14240F2008102383C44641A002140EA0C401EB10022DC40C6E90042BDE8F0873E
:2003400002B9FFDEB2FA82F3002B4FD18D1A01214FEA124E1FFA82F8B5FBFEFC0EFB1C5580
:2003600008FB0CF0220C42EA0545A84207D97D190CF1FF3202D2A84200F2E98094462D1A12
:20038000B5FBFEF00EFB105508FB00F8A4B244EA0544A04507D93C1900F1FF3202D2A04594
:2003A00000F2D9801046A4EB080440EA0C40C0E78B4208D9002E00F0B1800021C6E9000512
:2003C0000846BDE8F087B3FA83F100294BD1AB4202D3824200F2B980841A65EB0303012087
:2003E0009E46002EAAD0C6E9004EA7E79F40C3F12002D1404FEA174EB1FBFEF01FFA87F850
:200400000EFB101124FA02F29D4000FB08FC2A43150C45EA0145AC4504FA03F409D97D1963
:2004200000F1FF3180F08F80AC4540F28C8002383D44A5EB0C05B5FBFEF10EFB115C01FB80
:2004400008F995B245EA0C45A94507D97D1901F1FF3274D2A94572D902393D44A5EB090574
:2004600041EA004178E7C1F120078B4022FA07FC4CEA030C25FA07F44FEA1C4EB4FBFEF946
:200480001FFA8CF80EFB194420FA07F309FB08FA8D401D432B0C43EA0444A24502FA01F290
:2004A00000FA01F309D91CEB040409F1FF3048D2A24546D9A9F102096444A4EB0A04B4FB7B
:2004C000FEF00EFB104400FB08FAADB245EA0444A24508D91CEB040400F1FF352DD2A2451C
:2004E0002BD90238644440EA0940A0FB0289A4EB0A044C45C6464D4619D316D05EB1B3EB31
:200500000E0264EB050404FA07F722FA01F31F43CC40C6E900740021BDE8F08731463046AC
:200520000CE78C46EBE61046FFE64345E6D2B8EB020E69EB0C050138E0E72846D3E7114613
:200540008CE78146B9E7084673E7084649E7ACF1020C3D4413E702383C4424E7704700BF3A
:20056000DFF834D0002103E00C4B5B58435004310B480C4B42189A42F6D30B4A02E00023C7
:2005800042F8043B094B9A42F9D303F05BFF04F00DF800F0BDF8704700060020F0490008DD
:2005A000000600208C0A00208C0A002078F70020FEE7000010B500F0FBFF124B1B68C01ACC
:2005C000C82800D810BD00F0E5F800F0F1FF0D4B186000F0F3F80028F4D10B4A137801332D
:2005E000DBB21370052BEDD9134600221A7000F0C7F8064C204600F0E9FD204600F0F6FA6D
:20060000E0E700BF88F4002092F40020A447000838B52B4B1B78012B17D0022B24D00BB139
:2006200000BE11E000F0C4FF264C206000F0D2F8254800F001FB00F0BBFF2368C01A234BD6
:2006400018601F4B01221A7038BD214B1B78002BFAD100F0ADFF1F4B1B68C01A1628F3D9B4
:20066000174B02221A70EFE700F080F8184B01221A7000F09DFF184D286000F0D3F8124C8A
:20068000C0F30B0240F6FF71204600F027FD204600F086FD00F08CFF2B68C01A0F4B1860E7
:2006A00000F086FF0E4B1860204600F0BDFD00F07FFF084B1860024B00221A70C4E700BF48
:2006C00091F4002070F40020A447000874F4002090F400208CF4002078F400207CF4002016
:2006E00080F4002008B5074B00221A7000F060FF054B1A68801A186000F05AFF034B186069
:2007000008BD00BF90F4002080F4002084F4002008B500F019F800F01BF80A4C0B212046DC
:2007200000F038FA01221146204600F0D7FC204600F04CFD00F038F862B6FFF73BFFFFF7F7
:2007400067FFFAE7A447000808B503F0E1FD08BD08B503F093FC03F077FC03F0E7FE03F09C
:2007600025FE03F049FC03F0D5FB08BD08B54FF48051024802F084F808BD00BF000C02403B
:2007800008B54FF40051024802F07AF808BD00BF000C024008B54FF40041024802F070F8A3
:2007A00008BD00BF000C024008B501221146024802F04AF808BD00BF0010024008B54FF4DC
:2007C0008071034802F02CF8003818BF012008BD0004024008B50B4801F004FB10F0010F7C
:2007E00000D108BD00F0E4FE074B1B68C01A3228F7D900F0DDFE044B1860024801F080F873
:20080000EFE700BF14F6002098F4002008B5034801F034F9024B186008BD00BF14F60020D4
:2008200094F40020014B1868704700BF94F40020F0B585B00446A74B1B78062B00F2478192
:20084000DFE813F007006F009300C200F800FA00560000F03FFCA04B186000231A4619464B
:20086000204600F06EFC00250195FF2600962B462A469A49204600F005FB012701970096D2
:200880002B462A469649204600F0FCFA0195009533462A469349204600F0F4FA01970095EB
:2008A00033462A469049204600F0ECFA019500952B4632468D49204600F0E4FA01970095EF
:2008C0002B4632468A49204600F0DCFA01950096334632468749204600F0D4FA01970096F1
:2008E000334632468449204600F0CCFA794B1F7005B0F0BD814E56F82510204600F0EEFAD9
:2009000056F82510204600F050FB0135EDB2012DF0D9724B5B7F202BEAD96E4B02221A70DB
:20092000E6E70025F3E7754E56F82510204600F0D5FA56F82510204600F037FB704E56F869
:200940002510204600F0CAFA56F82510204600F02CFB0135EDB2012DE5D9624B5B7F202BB5
:20096000C6D95C4B03221A70C2E70025F3E7634E56F82510204600F0B1FA56F825102046BC
:2009800000F013FB5E4E56F82510204600F0A6FA56F82510204600F008FB5A4E56F825102D
:2009A000204600F09BFA56F82510204600F0FDFA0135EDB2012DDAD94C4B5B7F202B97D99A
:2009C000444B04221A7093E70025F3E74B4E56F82510204600F082FA56F82510204600F098
:2009E000E4FA474E56F82510204600F077FA56F82510204600F0D9FA424E56F82510204615
:200A000000F06CFA56F82510204600F0CEFA3E4B53F82510204600F0C8FA0135EDB2012DBB
:200A2000D4D9344BDB7E002B7FF462AF294B05221A705DE70025F2E7344A1378013313705B
:200A4000002516E0FF238DF80D3024E0FF238DF80C3029E0FF238DF80E309DF80E3000935C
:200A60009DF80C309DF80D202946204600F040FB0135194B1B68AB4220D903AA294620465E
:200A800000F048FB9DF80D3003F12802FE2AD9D814338DF80D309DF80C3003F12802FE2A3A
:200AA000D4D814338DF80C309DF80E3003F12802FE2ACFD814338DF80E30CEE7134B1B7812
:200AC0000C2B7FF615AF034B06221A7010E700BE0EE700BFA4F40020A0F40020A8F4002015
:200AE00028F50020C8F4002048F50020E8F4002068F5002008F5002088F500201406002013
:200B0000200600202C060020380600209CF400202DE9F041054600F0F1FC00240FE0DFF8D6
:200B2000708058F8261058F8270000F0C0FB58F8261058F8270000F0ABFB0134E4B2274652
:200B4000661C134B53F8261039B1114B53F8240000F07EFB0028F0D0E1E7002404E02846F0
:200B600000F0BCF90134E4B2094B53F824100029F5D1002404E0284600F0E7F90134E4B232
:200B8000034B53F824100029F5D1BDE8F08100BF0406002038B505460C460C2900D900BE44
:200BA0000E4B1C70231FDBB2012B01D90B2C02D1284600F04BFC022C02D00B2C00D038BDD0
:200BC0000749284600F01AF90649284600F029F90549284600F03EF9F1E700BF01060020E4
:200BE000A8F50020C8F50020E8F5002010B504460D4A13780133DBB213700D2B0FD02046AC
:200C000000F024FC0949204600F0F8F80849204600F007F90749204600F01CF910BD1346A4
:200C200001221A70EBE700BF01060020A8F50020C8F50020E8F5002038B50446394B1B786A
:200C4000062B0CD1384B1B78013B0B2B68D8DFE803F0090E171A1D20272E353C6408FFF757
:200C6000E7FD38BD314B197800F066F8F9E7304D294600F033F92946204600F066F9F0E75D
:200C800000F004FCEDE700F01FFCEAE700F036FCE7E7264B19780B460A4600F052FAE0E71E
:200CA00000231A462149097800F04BFAD9E700231E4A1278194600F044FAD2E71B4B1B787D
:200CC0000022114600F03DFACBE71A4A1378591C1170012B13D0022B18D04BB1134B1B78CC
:200CE0000022114600F02DFA124B00221A70B8E70E4B19780B460A4600F023FAB1E7002369
:200D00001A460A49097800F01CFAAAE70023074A1278194600F015FAA3E7FFF7F9FEA0E7AE
:200D200000BE9EE7A4F400200106002000060020A8F5002008F600202E4B1B781BB1013B7C
:200D40002C4A13707047F0B583B004460D4600F012FA294F009500231A463968204600F0EB
:200D6000C7F93968002600962B4632460131204600F0BEF93968009633462A460231204675
:200D800000F0B6F939680095334632461431204600F0AEF9396800962B463246153120467F
:200DA00000F0A6F93968009633462A461631204600F09EF93968009533463246283120466A
:200DC00000F096F9396800962B4632462931204600F08EF93968009633462A462A3120465C
:200DE00000F086F93B6801333B60024B03221A7003B0F0BD440600200CF6002000234B605C
:200E0000CB6040F26B220A61FF224A760B768B764FF480324A610822CA7604220A778B607E
:200E2000704738B50C460025CD6000F053F920614008606064236376C8232376A5764FF463
:200E4000D03363610623E37604232377C003A06038BD000038B50C460025CD6000F03AF91C
:200E6000206165762576FF23A376054B63610823E3760838606004232377C003A06038BD2F
:200E80000040FFFF2DE9F04105460C4617461E469DF81C800023CB6000F01CF9206167768D
:200EA00026769DF81830A376B8F1000F10D00A4B63610823E376284600F00CF94008606000
:200EC00004232377C003A06001236377BDE8F0814FF4F023ECE700BF0080F8FF4B68CA6836
:200EE000934231D970B582B006460C460A69934228D2012508E0002200921346491B3046E7
:200F000000F0F6F80135EDB2237FAB4205D361684A1BE3689A42F5DBEDE7002507E0002290
:200F200000921346304600F0E3F80135EDB2237FAB4207D96168E37E2B44194423699942E4
:200F4000F3D8ECE702B070BD704770B582B006460C460025E37EAB420BD96168A37E009394
:200F6000237E627E2944304600F0C2F80135EDB2F0E761682269D21A914204D36269002AD8
:200F800001DD52426261E2681344994202D86369002B07DB6369A2681344A360DB1363600C
:200FA00002B070BD5B426361F4E7F0B583B00C46C97E002931D007466368E06883422AD953
:200FC0002569AB4227D2627F5200D2B201326277691A8B4204D36269002A01DD0022E27666
:200FE000E27E1044834202D86369002B17DB0025E37EAB4216D96168627F607E237EA67E06
:2010000016400096134002402944384600F070F80135EDB2ECE70023E37603B0F0BD002365
:20102000E376E4E7002BF8D06369A2681344A360DB136360F1E70023072B25D8F0B40BE0FF
:20104000466910E0476914E04569103442F824500133DBB2072B15D80E781C468025DD4023
:201060002E42EDD0066942F824604E783542E9D0076904F1080642F826708E783542E3D0AD
:201080000569E2E7F0BC70477047000030B40F4C246804FB01F10E4D2D68B1FBF5F104FBC2
:2010A00002F2B2FBF5F204FB03F4B4FBF5F4FF2900D900BEFF2A00D900BEFF2C00D900BED9
:2010C00041700270847030BC704700BF4C060020480600204368186970470000024B19600E
:2010E000024B1A60704700BF4C0600204806002010B50C4611461A4643681B69A34200D21F
:2011000000BE006804EB44049DF808302044FFF7BDFF10BD134692B1426812698A4200D263
:2011200000BE026801EB41010A4492789A700268525C1A70026811444A785A70704700BE95
:20114000EAE72DE9F8438146884617461E46002440F26A25AC420CD8D9F8005004EB44000C
:2011600033463A4641462844FFF790FF0134A4B2EEE7BDE8F883F8B507460D46002440F2DB
:201180006A239C420BD8386804EB44062B462A4629463044FFF77AFF0134A4B2EFE7F8BDDF
:2011A00038B50546002440F26A239C420DD8296804EB44036A68D26802EB43121944284671
:2011C000FFF739FF0134A4B2EDE738BD10B582B0044643681A6800231360426852681360B2
:2011E0000C228DF804208DF805308DF8063043689A6801A9FFF71FFF01230AE062681168E7
:20120000002241F823206168496841F8232001339BB2282BF2D900212046FFF7ACFF20460D
:20122000FFF7BEFF02B010BD00B583B04268938A1268C168806802F09DFB8DF807009DF897
:20124000073003B100BE9DF8073003B05DF804FB10B4044650B159B163684A68934209D3CB
:20126000C87E1044834211D9002004E000BEF2E700BEF1E70020E47E23449A4204D8C97E0C
:201280000A44934200D8012010BC70470120F2E730B4437E047E827E8D7E45764D7E057682
:2012A0000D7E85764C760A768B7630BC704743695B4243614B695B424B617047F0B583B049
:2012C000194CC1EBC102960004EB8202156953681D445560D368A7593B44A3515469966879
:2012E00034449460EA13DB13E413B5F5000F00DB00BEFF2B00DD00BEFF2C00DD00BE002A99
:201300000BDB002B0BDB002C0BDBE4B20094DBB2D2B2FFF7EDFE03B0F0BD00BEF1E700BEF4
:20132000F1E700BEF1E700BF4407001038B5054600246B681B69A34205D921462846FFF7E4
:20134000BDFF0134F5E738BD2DE9F04F83B006460C46154601A9324801F0BCFE6A46214664
:201360003046FFF7D7FE002D56D0C4EBC4032D4A02EB830300221A839DF807205A8332B936
:20138000C4EBC403274901EB830301325A83C4EBC403244A02EB83035E8BF6039DF80130E6
:2013A000D903204DC4EBC40205EB8208C8F804109DF800B04FEACB3145F822109DF802A001
:2013C0004FEACA32C8F808209DF80410C91AF71732463B4688078910FEF7F6FEC8F810007C
:2013E0009DF80510A1EB0B0132463B46880741F38E01FEF7E9FEC8F80C009DF80610A1EB81
:201400000A0132463B4688078910FEF7DDFEC8F8140003B0BDE8F08F034B1E88F603BDE794
:2014200064F60020440700105006002038B5054600246B681B69A34206D9002221462846F3
:20144000FFF782FF0134F4E738BD0000002143681B698B4216D930B40B4CC1EBC1039D00BC
:2014600004EB830300225A6062519A601A61DA605A611A835A83013143681B698B42EBD893
:2014800030BC7047704700BF4407001030B585B0054600246B681B69A34210D903A909482D
:2014A00001F018FE9DF80E3000939DF80D309DF80C2021462846FFF71BFE0134EAE705B08D
:2014C00030BD00BF64F6002010B50446094B1A88094B1B889A4207D02046FFF727FF054A66
:2014E00013880133138010BD024B00221A80FFF79DFFF1E7520600205006002038B5054624
:20150000002411E0012221462846FFF71DFF21462846FFF7D3FEC4EBC4020B4B03EB8203D2
:201520001A8B01321A8301346B681B69A34209D9C4EBC403044A02EB83031A8B5B8B9A4245
:20154000E5D1DFE738BD00BF4407001010B504460E4B18784FF47A73B3FBF0F30C4A106879
:20156000B0FBF3F000F0A0FC68B90F2C01D901200AE0002221464FF0FF3000F037FC054BA6
:201580001C60002000E0012010BD00BF540600205C06002058060020034A1168034B1B7801
:2015A0000B441360704700BF10F6002054060020014B1868704700BF10F6002010B50446DC
:2015C0004F4B5A6822F440325A605A6841680A435A600268536823F48073536002685368F4
:2015E000016943EA012353600268536823F0407353600268536881680B435360026893686B
:2016000023F40063936002689368C1680B439360826A3C4B9A425BD00268936823F07063C9
:20162000936002689368816A0B4393600268936823F04053936002689368C16A0B43936057
:201640002268936823F00203936022689368217E43EA4103936094F82030002B49D0636A85
:20166000013B072B3FD82268536843F4006353602268536823F46043536021684B68626A99
:20168000013A43EA42334B602268D36A23F47003D3622168CB6AE269013A43EA0253CB6249
:2016A0002268936823F4007393602268936894F8301043EA412393602268936823F48063D4
:2016C000936022689368616943EA8123936010BD0268936823F0706393600268936823F081
:2016E00040539360ACE740F27571074802F05BFEB9E72268536823F400635360C4E700BFA3
:20170000002301400100000FBC470008002800F0EE8010B504460368764A93420CD002F5E2
:201720008072934208D002F58072934204D040F24311714802F037FE636843B1B3F5803FEC
:2017400005D0B3F5003F02D0B3F5403F71D1A36843B1B3F1807F05D0B3F1007F02D0B3F182
:20176000407F6CD12369012B6FD8237E012B72D8A36A7BB3B3F1807F2CD0B3F1007F29D061
:20178000B3F1407F26D0B3F1806F23D0B3F1A06F20D0B3F1C06F1DD0B3F1E06F1AD0B3F186
:2017A000006F17D0B3F1106F14D0B3F1206F11D0B3F1306F0ED0B3F1406F0BD0B3F1506F06
:2017C00008D0B3F1606F05D0B3F1706F02D04B4A934246D1E36813B1B3F5006F47D1E36989
:2017E000013B0F2B49D894F83030012B4BD86369022B4ED894F82030012B50D8A26A3F4B32
:201800009A420AD0E36A43B1B3F1805F05D0B3F1005F02D0B3F1405F47D1236C002B4AD075
:20182000236C13F0100F4ED00120002384F83C3010BD4FF4A271304802F0B5FD87E740F2CE
:2018400045112D4802F0AFFD8CE74FF4A3712A4802F0A9FD89E740F24711274802F0A3FD50
:2018600086E74FF4A471244802F09DFDB2E740F24911214802F097FDB1E74FF4A5711E4840
:2018800002F091FDAFE740F24B111B4802F08BFDADE74FF4A671184802F085FDAAE740F242
:2018A0004D11154802F07FFDA8E740F25111124802F079FDB1E7204602F062FB00236364E3
:2018C00084F83C30ACE7236C23F4885323F0020343F0020323642046FFF770FE0020606487
:2018E000236C23F0030343F0010323649DE70120704700BF00200140BC4700080100000FEB
:2019000010B582B0044600230193037E012B2AD8E36A43B1B3F1805F05D0B3F1005F02D0B2
:20192000B3F1405F25D194F83C30012B00F09080012384F83C3023689A6812F0010F1ED1B0
:201940009A6842F001029A60464B1B68464AA2FB03239B0C03EB43030193019B7BB1019B1C
:20196000013B0193F9E740F20441404802F01BFDCEE740F205413D4802F015FDD3E72268B4
:20198000936813F0010F65D0236C23F4E06323F0010343F480732364536813F4806F05D0CD
:2019A000236C23F4405343F480532364236C13F4805F22D0636C23F006036364002384F8A5
:2019C0003C306FF0220313602268536843F0806343F020035360264B5B6813F01F0F27D1E3
:2019E0002368244A934211D002F58072934207D0214A934214D000202DE000236364DDE7A4
:201A000002F50072526812F01F0FF1D19A6812F0405F22D19A6842F080429A6000201AE011
:201A200002F58072526812F0100FEFD0002012E02368104A934201D000200CE09A6812F076
:201A4000405F0CD19A6842F080429A60002002E0022000E0002002B010BD0020FBE7002055
:201A6000F9E700BF5C06002083DE1B43BC4700080023014000200140002201400368D86CA4
:201A8000704770477047000038B50446037E012B00F29580E369013B0F2B00F296806369A0
:201AA000022B00F2988022681168536803F0200311F0020F2DD063B3236C13F0100F03D171
:201AC000236C43F400732364936813F0405F19D1237EBBB9D36A13F4700F03D0936813F412
:201AE000806F0FD1536823F020035360236C23F480732364236C13F4805F03D1236C43F048
:201B0000010323642046FEF781FE23686FF012021A60236819685A6802F0800211F0040F92
:201B200036D0002A34D0226C12F0100F03D1226C42F4005222649A6812F4401F21D19A6BF4
:201B400012F4401F03D09A6812F4806F19D15A6812F4806F15D19A6812F0405F11D1227EAA
:201B60007AB95A6822F080025A60236C23F480532364236C13F4807F03D1236C43F00103F3
:201B80002364204600F030F923686FF00C021A6022681168536803F0400311F0010F04D0F4
:201BA0001BB1136813F0010F1BD122681168536803F0806311F0200F00D0F3B938BD40F278
:201BC0009D41144802F0EFFB64E740F29E41114802F0E9FB63E740F29F410E4802F0E3FBE2
:201BE00061E7236C43F4803323642046FFF749FF23686FF001021A60D7E7636C43F00203CD
:201C000063646FF0200515602046FFF73BFF23681D60D3E7BC47000830B583B005460C46EC
:201C2000002301930B68122B4ED86368013B0F2B50D8A368072B53D895F83C30012B00F031
:201C4000C780012385F83C302368092B4ED92868C2689BB203EB43031E3B072101FA03F39D
:201C600022EA0303C3602868C268A168238803EB43031E3B01FA03F31343C3606368062BCE
:201C80004AD82868426B03EB8303053B1F2101FA03F322EA030343632868426B636803EB52
:201CA0008303053B218801FA03F3134343632A68484B9A4260D02A68464B9A4265D0002043
:201CC00085F83C0003B030BD4FF4CB61424802F06AFBAAE740F259613F4802F064FBA8E777
:201CE00040F25A613C4802F05EFBA5E7286802699BB203EB4303072101FA03F322EA0303F5
:201D0000036128680269A168238803EB430301FA03F313430361B1E70C2B16D82868026B17
:201D200003EB8303233B1F2101FA03F322EA030303632868026B636803EB8303233B2188E5
:201D400001FA03F313430363B1E72868C26A03EB8303413B1F2101FA03F322EA0303C3622A
:201D60002868C26A636803EB8303413B218801FA03F31343C3629AE72368122B9BD1174AC1
:201D8000536843F48003536095E72368103B012B95D8124A536843F4000353602368102B66
:201DA0008DD10F4B1B6802F1467202F52E3202F28332A2FB03239B0C03EB83035B00019370
:201DC00002E0019B013B0193019B002BF9D176E7022077E700200140BC4700080023014077
:201DE0005C060020006C70477047000070B505460C4616460F2A25D80F2C28D81B4BDB684F
:201E0000C3F30223C3F10701042928BF04211A1D062A21D9033B4FF0FF3202FA01F124EAE7
:201E200001049C4002FA03F326EA03063443002D14DB2401E4B205F1604505F5614585F8B0
:201E4000004370BDAA210A4802F0ADFAD4E7AB21074802F0A8FAD1E70023DCE705F00F054B
:201E60002401E4B2034B5C55EBE700BF00ED00E0F447000814ED00E010B5041E0ADB002C2E
:201E800007DB04F01F02640901239340044A42F8243010BDBE21034802F085FAEFE700BF0E
:201EA00000E100E0F44700080138B0F1807F0AD2064B5860064AF02182F82310002098603A
:201EC00007221A6070470120704700BF10E000E000ED00E0A0B110B504460268094B9A427A
:201EE00003D06821084802F05EFA63791BB101236371002010BD2371204602F08DF8F6E711
:201F000001207047003002403048000830B405682C6824F480242C60046863608368402B45
:201F200005D0036899600368DA6030BC704703689A600368D960F8E710B40368D9B2103935
:201F40000B4AA2FB014212090A4CA25CC2655F2908D923F47F7323F0030304338365806D1F
:201F600010BC704723F47F7323F003038365F6E7ABAAAAAAA0480008836A826992B9012B0F
:201F80000AD0022B02D00BB100207047C36A13F0807F28D100207047C36AB3F1C07F24D0D2
:201FA00000207047B2F5005F09D0022B25D9032B25D1C36A13F0807F23D100207047032BF4
:201FC00003D8DFE803F01404140A00207047C36A13F0807F0DD100207047C36AB3F1C07F6B
:201FE00009D000207047012070470120704701207047012070470120704701207047002001
:20200000704701207047000070B50446FFF7D0FA002C00F03881054623689C4A934231D09B
:20202000183293422ED0183293422BD01832934228D01832934225D01832934222D01832E3
:2020400093421FD0183293421CD002F55672934218D01832934215D01832934212D01832E6
:2020600093420FD0183293420CD01832934209D01832934206D01832934203D0B82184482D
:2020800002F091F96368A3B1B3F1007F11D0B3F1806F0ED0B3F1C06F0BD0B3F1006F08D097
:2020A000B3F1206F05D0B3F1406F02D0B3F1606F6DD1A3681BB1402B01D0802B6CD1E368FC
:2020C000B3F5007F01D0002B6BD12369B3F5806F01D0002B6AD163692BB1B3F5006F02D0B6
:2020E000B3F5805F67D1A3692BB1B3F5005F02D0B3F5804F64D1E36923B1B3F5807F01D01C
:20210000202B62D1236A43B1B3F5803F05D0B3F5003F02D0B3F5403F5CD1636A0BB1042BBF
:202120005DD1636AC3B1A36A032B5DD8E36A43B1B3F5000F05D0B3F1807F02D0B3F1C07F9B
:2021400057D1236B43B1B3F5001F05D0B3F5800F02D0B3F5C00F51D1002384F8343002236F
:2021600084F835302268136823F00103136023681A6812F0010F46D0FFF71AFA401B052828
:20218000F5D920236365032084F8350070BDB9213F4802F008F98CE7BA213D4802F003F950
:2021A0008DE7BB213A4802F0FEF88EE7BC21384802F0F9F88FE7BD21354802F0F4F892E788
:2021C000BE21334802F0EFF895E7BF21304802F0EAF897E7C0212E4802F0E5F89DE7C1211A
:2021E0002B4802F0E0F89CE7C621294802F0DBF89CE7C721264802F0D6F8A2E7C82124488B
:2022000002F0D1F8A8E71A68224810406168A2680A43E1680A4321690A4361690A43A1698A
:202220000A43E1690A43216A0A430243616A04291ED01A602668756925F00705636A1D4383
:20224000042B07D1A36A1D43E36A1BB12046FFF793FE90B975612046FFF76EFEE26D3F236C
:202260009340836000206065012384F835308DE7E16A206B01430A43DBE7402363650120D5
:2022800084F8350082E7012080E700BF10600240684800083F8010F02DE9F04104460E46CF
:2022A00017461D46D0F858805A1E4FF6FE739A4211D894F83430012B36D0012384F83430A5
:2022C00094F83530DBB2012B0BD0002384F834300220BDE8F0814FF4E671144802F063F8FB
:2022E000E7E7022384F83530002363652B463A4631462046FFF70AFEE26D3F239340C8F80F
:2023000008302268136843F016031360236C23B12268136843F0080313602268136843F070
:20232000010313600020D4E70220D2E76848000890F83530DBB2022B03D0802343650120D2
:202340007047052380F835300268136823F001031360002070470000F0B583B00446002336
:202360000193724B1D68724BA3FB0535AD0A876D3E68C26D08239340334210D003681A6832
:2023800012F0040F0BD01A6822F004021A60C26D08239340BB60436D43F001034365E26D13
:2023A00001239340334209D02268526912F0800F04D0BB60636D43F002036365E26D0423CD
:2023C0009340334209D02268126812F0020F04D0BB60636D43F004036365E26D10239340AF
:2023E000334224D02268126812F0080F1FD0BB6023681A6812F4802F0DD01B6813F4002FF5
:2024000004D1236C9BB12046984710E0A36C73B1204698470BE01A6812F4807F03D11A6897
:2024200022F008021A60236C0BB120469847E26D20239340334255D02268126812F0100F52
:2024400050D0BB6094F83530DBB2052B0ED023681A6812F4802F33D01B6813F4002F2AD13C
:20246000636C002B3ED0204698473BE02268136823F0160313602268536923F080035361C0
:20248000236CA3B12268136823F008031360E26D3F239340BB60002384F83430012384F881
:2024A0003530236D002B3FD0204698473CE0A36C002BE7D1EBE7E36BA3B12046984711E0F0
:2024C0001A6812F4807F09D11A6822F010021A60002384F83430012384F83530E36B0BB169
:2024E00020469847636DFBB1636D13F0010F17D0052384F835302268136823F001031360B9
:20250000019B01330193AB4204D823681B6813F0010FF5D1002384F83430012384F835309F
:20252000E36C0BB12046984703B0F0BD5C060020B5814E1B2DE9F04383B007460E46B24BB0
:20254000984223D003F5806398421FD003F5806398421BD003F58063984217D003F58063F3
:20256000984213D003F5806398420FD003F5806398420BD003F58063984207D003F5806313
:20258000984203D0B321A14801F00DFF33689AB212B11B0C1B041BB1B4219C4801F003FF6C
:2025A0007368012B1ED9112B1CD0022B1AD0122B18D0974A934215D002F58012934211D0DF
:2025C00002F5801293420DD0A2F5F812934209D002F58012934205D002F58012934201D00F
:2025E000032B04D1B368022B06D800244BE0B521864801F0D8FEF5E7B621844801F0D3FEB7
:20260000F3E7C821814801F0CEFE52E0E0217F4801F0C9FE90E0072300E000238B40034311
:2026200002327C4941F822307B4B1A686FEA080322EA0801706810F4803F01D048EA0201B4
:20264000754A1160526803EA0201706810F4003F01D048EA0201704A5160926803EA02012A
:20266000706810F4801F01D048EA02016A4A9160D2681340716811F4001F01D048EA0203A2
:20268000654AD36001340F2C00F2BB800125A540336803EA050835EA0303F3D173685A1EDF
:2026A000012A03D9112B01D0122B15D1F368032BA7D8BA68610003238B4022EA0302F368FB
:2026C0008B401343BB607A6822EA05027368C3F30015A54015437D60FA6865000323AB4031
:2026E0006FEA030922EA0302B368AB401343FB607368022B01D0122B2ED13369E3B1092B34
:202700001AD0012B18D0022B16D0032B14D0042B12D0052B10D0062B0ED0072B0CD0082B25
:202720000AD00A2B08D00B2B06D00C2B04D00D2B02D00F2B7FF46AAFE208083257F8220036
:2027400004F0070399000F238B4020EA030033698B40034347F822303B6809EA030973681D
:2027600003F00303AB4043EA09033B60736813F0805F87D000230193284B5A6C42F48042A5
:202780005A645B6C03F480430193019BA208911C204B53F8210004F0030399000F238B400C
:2027A00020EA0300184B9F423FF437AF03F580639F421AD003F580639F4218D003F580638A
:2027C0009F4216D003F580639F4214D003F580639F4212D003F580639F4210D003F580637D
:2027E0009F423FF418AF082318E7012316E7022314E7032312E7042310E705230EE7062310
:202800000CE703B0BDE8F08300000240A84800080000111000380140003C0140003802402F
:2028200038B504460D4621B123691D4207D0012038BD4FF4BF71034801F0B5FDF4E7002008
:20284000F6E700BFA848000870B5054614460E4621B1012C08D86CB1AE6170BD40F29F11AC
:20286000064801F0A0FDF4E74FF4D071034801F09AFDF0E73604AE61EFE700BFA84800089D
:2028800038B504460D4629B1636935EA030307D0A56138BD4FF4DB71034801F084FDF3E7EB
:2028A0002D04A561F5E700BFA8480008002800F05C8270B582B0044603680F2B39D8236876
:2028C00013F0010F4DD063682BB1B3F5803F02D0B3F5A02F32D1A54B9B6803F00C03042B4A
:2028E00036D0A24B9B6803F00C03082B2BD06368B3F5803F5FD0B3F5A02F62D09B4B1A6840
:2029000022F480321A601A6822F480221A606368002B60D0FEF74CFE0546944B1B6813F4A8
:20292000003F1ED1FEF744FE401B6428F5D9032022E2E8218E4801F036FDC0E7ED218C48CA
:2029400001F031FDC7E7894B5B6813F4800FCED0864B1B6813F4003F03D06368002B00F08C
:202960000682236813F0020F66D0E368012B41D823691F2B44D87D4B9B6813F00C0F4AD075
:202980007A4B9B6803F00C03082B3FD0E368002B76D0784B01221A60FEF70AFE0546734B09
:2029A0001B6813F0020F62D1FEF702FE401B0228F5D90320E0E16D4A136843F48033136092
:2029C000A5E76A4B1A6842F480221A601A6842F480321A609BE7FEF7EBFD0546634B1B6823
:2029E00013F4003FBDD0FEF7E3FD401B6428F5D90320C1E140F21F115D4801F0D4FCB7E74F
:202A00004FF490715A4801F0CEFCB4E7574B5B6813F4800FBAD1554B1B6813F0020F03D0EA
:202A2000E368012B40F0A581504A136823F0F803216943EAC1031360236813F0080F49D0FA
:202A40006369012B2ED8636993B34B4B01221A60FEF7AEFD0546454B5B6F13F0020F39D1D0
:202A6000FEF7A6FD401B0228F5D9032084E13F4A136823F0F803216943EAC1031360DBE721
:202A80003C4B00221A60FEF793FD0546374B1B6813F0020FD0D0FEF78BFD401B0228F5D9BA
:202AA000032069E14FF4B071314801F07CFCCAE7314B00221A60FEF77BFD05462B4B5B6FA2
:202AC00013F0020F06D0FEF773FD401B0228F5D9032051E1236813F0040F00F08880A3685B
:202AE000012B01D9052B12D1204B1B6C13F0805F13D1002301931D4B1A6C42F080521A64DE
:202B00001B6C03F080530193019B012506E04FF4C671174801F047FCE6E70025174B1B6848
:202B200013F4807F2CD0A368012B3DD0052B41D00E4B1A6F22F001021A671A6F22F00402F5
:202B40001A67A368002B3FD0FEF732FD0646074B1B6F13F0020F48D1FEF72AFD801B41F24C
:202B600088339842F3D9032006E100BF00380240E448000800004742800E4742007000402D
:202B8000844A136843F480731360FEF711FD0646804B1B6813F4807FC5D1FEF709FD801B80
:202BA0000228F5D90320E7E07B4A136F43F001031367C6E7784B1A6F42F004021A671A6F00
:202BC00042F001021A67BCE7FEF7F2FC0646724B1B6F13F0020F08D0FEF7EAFC801B41F291
:202BE00088339842F3D90320C6E0002D3BD1A369022B3ED8A369002B00F0BD80664A926815
:202C000002F00C02082A00F09080022B79D1E36913B1B3F5800F32D1236A3F2B35D8636AF0
:202C2000323BB3F5BF7F36D8A36A022B05D0042B03D0062B01D0082B33D1E36A023B0D2B27
:202C400035D8564B00221A60FEF7B2FC0546524B1B6813F0007F30D0FEF7AAFC401B02287A
:202C6000F5D9032088E04C4A136C23F080531364BDE740F2CF114A4801F095FBBAE74FF4DC
:202C8000EC71474801F08FFBC6E740F2D911444801F089FBC3E74FF4ED71414801F083FBC0
:202CA000C2E740F2DB113E4801F07DFBC5E74FF4EE713B4801F077FBC3E7E369226A134352
:202CC000626A43EA8213A26A5208013A43EA0243E26A43EA0263304A5360304B01221A6030
:202CE000FEF766FC04462C4B1B6813F0007F06D1FEF75EFC001B0228F5D903203CE000201F
:202D00003AE0264B00221A60FEF752FC0446224B1B6813F0007F06D0FEF74AFC001B022837
:202D2000F5D9032028E0002026E0012B26D01A4B5B6803F48001E269914221D103F03F026E
:202D4000216A8A421ED1616A47F6C0721A408A421AD103F44032A16A8A4217D103F07063F4
:202D6000E26A934214D1002006E001207047012002E0012000E0002002B070BD0120FBE769
:202D80000120F9E70120F7E70120F5E70120F3E70120F1E70070004000380240600047422F
:202DA000E4480008F8B52F4B9B6803F00C03042B53D0082B53D12B4B5A6802F03F025B68DC
:202DC00013F4800F28D0274B5B68C3F3881358010021C01A61F100018E0146EA90668701FB
:202DE0003C1A66EB0105E90041EA5471E000C01841F100014B0243EAD053440220461946BA
:202E00000023FDF731FA174B5B68C3F3014301335B00B0FBF3F023E0124B5B68C3F38813C0
:202E20005C010025E41A65F10005AE0146EA9466A701381B66EB0501CC0044EA5074C50009
:202E4000E81844F100018B0243EA90538402204619460023FDF708FAD5E7034800E0034809
:202E6000F8BD00BF0038024000127A000024F400002800F0F78070B50D4604460368013BC8
:202E80000E2B6BD8072D6FD87A4B1B6803F00F03AB4208D2EBB2774A1370136803F00F03C6
:202EA000AB4240F0E180236813F0020F29D013F0040F04D0704A936843F4E0539360236875
:202EC00013F0080F04D06C4A936843F460439360A3687BB1802B0DD0902B0BD0A02B09D08D
:202EE000B02B07D0C02B05D0D02B03D0E02B01D0F02B3FD1604A936823F0F003A1680B4389
:202F00009360236813F0010F4ED06368032B37D86368012B3AD09A1E012A3ED9564A1268E5
:202F200012F0020F00F0A28053498A6822F0030213438B60FEF73CFB06464F4B9B6803F07E
:202F40000C036268B3EB820F2ED0FEF731FB801B41F288339842F0D9032076E040F2512101
:202F6000464801F020FA8DE740F25221434801F01AFA89E740F27521404801F014FAB9E7B0
:202F80004FF41F713D4801F00EFAC1E73A4A126812F4003FC8D1012057E0374A126812F007
:202FA000007FC1D1012050E0324B1B6803F00F03AB4207D9EAB22F4B1A701B6803F00F03B5
:202FC000AB4255D1236813F0040F14D0E3685BB1B3F5805F08D0B3F5A05F05D0B3F5C05F60
:202FE00002D0B3F5E05F31D1234A936823F4E053E1680B439360236813F0080F15D02369C4
:203000005BB1B3F5805F08D0B3F5A05F05D0B3F5C05F02D0B3F5E05F1ED1174A936823F4E7
:203020006043216943EAC1039360FFF7BBFE124B9B68C3F30313124AD35CD840114B18602D
:20304000114B1868FEF782FA002070BD40F2BA210A4801F0A8F9C7E740F2C121074801F0E3
:20306000A2F9DAE7012070470120EEE70120ECE70120EAE7003C024000380240E448000814
:20308000C84900085C06002058060020E0B110B5044602680D4B9A4203D0A3210C4801F0FD
:2030A00082F963795BB1022363712268136843F004031360012363710020A06010BD237189
:2030C000204601F083F9EEE701207047000806501C490008F8B50379012B2BD004460E46B7
:2030E000012303714579EDB29D4206D0042383600125002323712846F8BD02234371FEF74E
:2031000057FA074623685A6812F0010F0BD1FEF74FFAC01B0228F5D9012363710223A360A5
:2031200000232371E7E79B68E3603360012363710025DEE70225DEE72DE9F04104460D467F
:20314000036A23F001030362066A4768836923F073080B6843EA080826F002038E681E43CB
:20316000204B984203D003F58063984209D1EB680BB1082B24D126F00806EB681E4326F083
:203180000406184B9C4203D003F580639C420FD1AB69B3F5007F00D0C3B96B69B3F5807F76
:2031A00000D0CBB927F440776B693B43AF691F436760C4F818806B6863632662BDE8F081CB
:2031C00041F20271084801F0EEF8D4E741F20F71054801F0E8F8E0E741F21071024801F0E0
:2031E000E2F8DFE700000140544900082DE9F04104460E46036A23F480730362056A47686A
:20320000C36923F073080B6843EA080825F400758B6845EA0325224B984203D003F5806377
:2032200098420AD1F3680BB1082B27D125F40065F36845EA032525F48065194B9C4203D054
:2032400003F580639C4211D1B369B3F5007F00D0D3B97369B3F5807F00D0DBB927F440579B
:20326000736947EA0317B36947EA03176760C4F81C807368E3632562BDE8F08141F29871A7
:20328000084801F090F8D1E741F2A571054801F08AF8DEE741F2A671024801F084F8DDE71A
:2032A00000000140544900082DE9F04104460D46036A23F480530362066AD0F80480C7699C
:2032C00027F4E6470B6847EA032726F400568B6846EA03360F4B984203D003F58063984250
:2032E00009D16B69B3F5807F00D063B928F480486B6948EA8318C4F80480E7616B68236426
:203300002662BDE8F08141F2E471034801F04BF8ECE700BF000001405449000810B5846BDC
:20332000012384F83D30636A83420BD0A36A834210D0E36A834210D0236B834204D108231C
:20334000237701E0012323772046FDF7CBF90023237710BD02232377F6E704232377F3E755
:20336000704710B5846B012384F83D30636A83420BD0A36A834210D0E36A834210D0236B36
:20338000834204D10823237701E0012323772046FFF7E6FF0023237710BD02232377F6E7C8
:2033A00004232377F3E7704708B5806B012380F83D30FFF7F8FF08BD0368304A904212D0BF
:2033C000B0F1804F0FD0A2F57C4290420BD002F58062904207D002F58062904203D002F5A5
:2033E0007842904203D123F070034A681343234A90422AD0B0F1804F27D0A2F57C42904218
:2034000023D002F5806290421FD002F5806290421BD002F57842904217D002F57052904294
:2034200013D002F5806290420FD002F5806290420BD0A2F59832904207D002F580629042E4
:2034400003D002F58062904203D123F44073CA68134323F080034A69134303608B68C362AE
:203460000B688362054B984203D003F58063984201D10B69036301234361704700000140D6
:2034800000287BD010B5044603683D4A934237D0B3F1804F34D0A2F57C42934230D002F544
:2034A000806293422CD002F58062934228D002F58062934224D002F58062934220D002F57C
:2034C000704293421CD002F57052934218D002F58062934214D002F58062934210D0A2F54C
:2034E000983293420CD002F58062934208D002F58062934204D040F29B41224800F053FF8F
:20350000A3683BB1102B05D0202B03D0402B01D0602B1BD123692BB1B3F5807F02D0B3F54A
:20352000007F19D1A3690BB1802B1BD194F83D30F3B1022384F83D30214651F8040BFFF763
:203540003BFF012384F83D30002010BD40F29C410C4800F028FFDDE740F29D41094800F0A8
:2035600022FFDFE740F29E41064800F01CFFDDE784F83C30204600F06DFFDAE701207047F3
:2035800000000140544900082DE9F04104460E46036A23F010030362056AD0F804808769BD
:2035A00027F4E6470B6847EA032725F020058B6845EA0315224B984203D003F580639842B2
:2035C0000AD1F3680BB1082B27D125F08005F36845EA031525F04005194B9C4203D003F52B
:2035E00080639C4211D1B369B3F5007F00D0D3B97369B3F5807F00D0DBB928F44068736902
:2036000048EA8308B36948EA8308C4F80480A7617368A3632562BDE8F08141F24D7109480C
:2036200000F0C1FED1E741F25B71064800F0BBFEDEE741F25C71034800F0B5FEDDE700BFF7
:20364000000001405449000870B504460D4616463AB1042A05D0082A03D00C2A01D03C2A06
:2036600028D12B68602B01D0702B29D1AB680BB1022B2BD12B690BB1042B2DD194F83C3060
:20368000012B00F01781012384F83C30022384F83D300C2E6DD8DFE816F025006C006C0013
:2036A0006C0073006C006C006C00AC006C006C006C00DC0040F6EC517F4800F074FED0E7C8
:2036C00040F6ED517C4800F06EFECFE740F6EE51794800F068FECDE740F6EF51764800F03C
:2036E00062FECBE72368754A93422FD0B3F1804F2CD0A2F57C42934228D002F5806293425B
:2037000024D002F58062934220D002F5784293421CD002F57052934218D002F58062934281
:2037200014D002F58062934210D0A2F5983293420CD002F58062934208D002F580629342D1
:2037400004D040F6FB515C4800F02DFE29462068FFF7F2FC2268936943F008039361226837
:20376000936923F0040393612268936929690B439361012384F83D30002084F83C0070BDD3
:2037800023684E4A93421FD0B3F1804F1CD0A2F57C42934218D002F58062934214D002F548
:2037A0008062934210D002F5784293420CD002F57052934208D0A2F59432934204D040F66E
:2037C0000C613D4800F0EFFD29462068FFF7DCFE2268936943F4006393612268936923F4A3
:2037E0008063936122689369296943EA01239361BFE72368314A934217D0B3F1804F14D0D6
:20380000A2F57C42934210D002F5806293420CD002F58062934208D002F57842934204D034
:2038200040F61D61244800F0BEFD29462068FFF7DDFC2268D36943F00803D3612268D369F9
:2038400023F00403D3612268D36929690B43D3618FE72368194A934217D0B3F1804F14D0C9
:20386000A2F57C42934210D002F5806293420CD002F58062934208D002F57842934204D0D4
:2038800040F62E610C4800F08EFD29462068FFF70BFD2268D36943F40063D3612268D36945
:2038A00023F48063D3612268D369296943EA0123D3615EE7022062E7544900080000014067
:2038C00070B504460D461646284B98422FD0B0F1804F2CD0A3F57C43984228D003F580630E
:2038E000984224D003F58063984220D003F5784398421CD003F57053984218D003F5806384
:20390000984214D003F58063984210D0A3F5983398420CD003F58063984208D003F58063D3
:20392000984204D041F6CC11114800F03CFD3DB1042D05D0082D03D00C2D01D03C2D0ED1F5
:2039400005F01F05012303FA05F2236A23EA02032362236A06FA05F51D43256270BD41F640
:20396000CD11034800F01FFDEAE700BF0000014054490008F8B504460D4616461F46016828
:20398000754B994212D0B1F1804F0FD0A3F57C4399420BD003F58063994207D003F58063E5
:2039A000994203D003F57843994206D1E5B1042D1AD0082D18D00C2D16D0684B994228D081
:2039C000674B99422AD0674B99422AD0664B99422AD0664B99422CD0654B99422CD040F212
:2039E000E751644800F0DFFC94F83D00C0B2022860D094F83D00C0B2012820D00C2D3DD8E1
:203A0000DFE805F0253C3C3C593C3C3C713C3C3C8800002DE8D0042DD2D1E5E7002DE3D0F2
:203A2000D1E7002DE0D0D1E7002DDDD0042DD0D1DAE7002DD8D0CFE7002DD5D0CFE71EB1EA
:203A4000022384F83D30D9E7002FF9D032E0636A494ADA63636A494A1A64636A484ADA6476
:203A600022683B4634323146606AFEF715FC002867D12268D36843F40073D36001222946FA
:203A80002068FFF71DFF2368334A934203D002F58062934203D15A6C42F400425A642268D4
:203AA000936803F00703062B53D0136843F0010313600020F8BDA36A2F4ADA63A36A2F4A77
:203AC0001A64A36A2E4ADA6422683B4638323146A06AFEF7E1FB002835D12268D36843F4B4
:203AE0008063D360CAE7E36A234ADA63E36A234A1A64E36A224ADA6422683B463C323146E9
:203B0000E06AFEF7C9FB00BB2268D36843F40063D360B3E7236B184ADA63236B174A1A6421
:203B2000236B174ADA6422683B4640323146206BFEF7B2FB58B92268D36843F48053D36024
:203B40009CE70120B6E70120B4E70120B2E70120B0E70020AEE700BF0000014000400140C0
:203B6000004401400048014000180040001C004000200040544900081D3300086333000888
:203B8000A933000838B504460D460368414A93421FD0B3F1804F1CD0A2F57C42934218D08C
:203BA00002F58062934214D002F58062934210D002F5806293420CD002F58062934208D0D5
:203BC00002F57042934204D040F26461324800F0EAFB2B686BB1102B0BD0202B09D0302B09
:203BE00007D0402B05D0502B03D0602B01D0702B41D16B68802B01D0002B42D194F83C30D2
:203C0000012B44D0012384F83C30022384F83D3023685968986821F070012A680A435A60E3
:203C200023681C4A93421AD0B3F1804F17D0A2F57C42934213D002F5806293420FD002F5E9
:203C4000806293420BD002F57842934207D002F57052934203D0A2F59432934204D120F0FD
:203C600080006A6810439860012384F83D30002084F83C0038BD40F26561074800F093FB08
:203C8000B7E740F26661044800F08DFBB6E70220F0E700BF000001408C4900080268D368B1
:203CA00023F49073D3600268536923F001035361202380F83A30704790F83930DBB2212B20
:203CC00001D0022070478368B3F5805F17D0036A5A1C02621A7803685A60C38C9BB2013B0B
:203CE0009BB2C3844BB90268D36823F08003D3600268D36843F04003D36000207047036A2C
:203D00001B880268C3F30803536003691BB9036A02330362E1E7036A01330362DDE7704792
:203D200008B50168CA6822F04002CA60202280F83920FFF7F4FF002008BD704708B590F8D0
:203D40003A30DBB2222B46D18368B3F5805F0FD003690BBB03685A68836A591C81621A7089
:203D6000C38D9BB2013B9BB2C385F3B1002008BD826A036943B903685B68C3F30803138076
:203D8000836A02338362EBE703685B68DBB21380836A01338362E3E703685B68826A511CA5
:203DA000816203F07F031370DAE70268D36823F02003D3600268D36823F48073D36002680D
:203DC000536923F001035361202380F83A30FFF7B4FF0020CBE70220C9E7704710B5044624
:203DE00002681368D168526913F00F0005D113F0200F02D011F0200F13D128B112F001020C
:203E000013D111F4907F10D113F0800F02D011F0800F6CD113F0400F02D011F0400F6AD1E9
:203E200010BD2046FFF78AFFFAE713F0010F06D011F4807F03D0E06B40F00100E06313F06D
:203E4000040F04D01AB1E06B40F00200E06313F0020F04D01AB1E06B40F00400E06313F078
:203E6000080F07D011F0200F00D11AB1E26B42F00802E263E26B002AD2D013F0200F02D09D
:203E800011F0200F21D123685B6903F04003E26B12F0080F00D123B32046FFF7FFFE23688A
:203EA0005A6912F0400F18D05A6922F040025A61636B73B1124A1A65606BFEF739FA00284C
:203EC000AED0606B036D9847AAE72046FFF736FFD9E72046FFF781FFA2E72046FFF77DFF2B
:203EE0009EE72046FFF779FF0023E36398E72046FFF7E2FE94E72046FFF712FF90E700BF27
:203F0000053F000808B5806B0023C385C384FFF764FF08BD00B585B0002300930193029314
:203F200003931448144A02604360836001220261037680F82030C36210498162C360C261DB
:203F400080F830304261FDF7E1FB60B90123009301930023029369460648FDF75DFE28B9CD
:203F600005B05DF804FB00F01DFAEFE700F01AFAF6E700BF14F60020002001400100000F20
:203F800030B589B0002303930493059306930793026803F1804303F590339A4201D009B0A6
:203FA00030BD0024019403F58C335A6C42F480725A645A6C02F480720192019A02941A6B01
:203FC00042F001021A631B6B03F001030293029B0225039503230493059403A90548FEF77D
:203FE000A9FA2A4621461220FDF700FF1220FDF743FFD4E70000024008B50548054B036000
:20400000FDF768FF00B908BD00F0CCF9FBE700BF5CF60020003002400268094B9A4200D023
:20402000704782B000230193064B1A6B42F480521A631B6B03F480530193019B02B070479C
:20404000003002400038024000B583B000210191094B1A6B42F400121A631B6B03F40013AB
:204060000193019B0A462F20FDF7C0FE2F20FDF703FF03B05DF804FB003802402DE9F04FA4
:204080008DB000240794089409940A940B940194984B1A6B42F010021A631A6B02F0100267
:2040A0000192019A02941A6B42F004021A631A6B02F004020292029A03941A6B42F0800285
:2040C0001A631A6B02F080020392039A04941A6B42F001021A631A6B02F001020492049ABB
:2040E00005941A6B42F002021A631A6B02F002020592059A06941A6B42F008021A631B6BE0
:2041000003F008030693069BDFF8F881224609214046FEF799FBDFF8F0B1012211465846E6
:20412000FEF792FB22464FF210017348FEF78CFB4FF6F47307934FF0030ACDF820A0099458
:2041400007A94046FEF7F6F9082607960125089509940A9407A94046FEF7ECF942F676338B
:204160000793CDF820A0099407A95846FEF7E2F90795089509940A9407A95846FEF7DAF9DB
:2041800007960226089609940A9405230B9307A95846FEF7CFF90795584B08930994584F92
:2041A00007A93846FEF7C6F910230793089609940A9406220B9207A93846FEF7BBF9E023D8
:2041C0000793089609940A9405220B9207A93846FEF7B0F94FF6B2030793CDF820A0099426
:2041E000DFF8289107A94846FEF7A4F9042207920894099407A94846FEF79CF94FF4806379
:204200000793089609940A9405220B9207A94846FEF790F940F6CF730793CDF820A0099477
:2042200007A93548FEF786F94FF210030793089509940A9407A93048FEF77CF94FF4A4534B
:204240000793089609940A9406220B9207A95846FEF770F94FF401430793CDF820A0099437
:2042600007A93846FEF766F94FF4007307930894099407A93846FEF75DF94FF4E0530793AA
:20428000089609940A940A230B9307A93846FEF751F9202307930894099407A91648FEF7F4
:2042A00049F94FF4107307931223089309950A9404220B9207A94846FEF73CF94FF48073EF
:2042C00007930894099507A94846FEF733F90795089509960A9407A94046FEF72BF9079649
:2042E000064B0893099407A94046FEF723F90DB0BDE8F08F00380240000C02400000121023
:204300000000024000100240000802400004024030B595B03022002108A800F06BF90024B4
:204320000394049405940694079401941B4B1A6C42F080521A641B6C03F080530193019B00
:204340000294174B1A6842F480421A601B6803F480430293029B012308934FF480330993B1
:2043600002250E954FF480030F93082310934FF4A873119312950723139308A8FEF796FA8F
:204380000F230393049505944FF4A05306930793052103A8FEF76CFD15B030BD003802405F
:2043A00000700040704700BE7047000008B50548054B0360FEF76AFE00B908BDFFF7F2FFA2
:2043C000FBE700BF64F60020000806500268094B9A4200D0704782B000230193064B5A6B44
:2043E00042F040025A635B6B03F040030193019B02B0704700080650003802407047FEE783
:20440000FEE7FEE7FEE770477047704708B5FDF7C3F808BD08B50248FDF736FB08BD00BFE7
:2044200014F6002008B50248FFF7D8FC08BD00BF14F7002008B50248FDF78EFF08BD00BFC6
:2044400074F60020024B4FF000629A60704700BF00ED00E002681A4B9A4200D0704710B5B0
:2044600082B0044600230193164A116C41F002011164126C02F002020192019A1248134A2A
:2044800002604FF02062426040228260C3604FF4806202614FF4805242614FF480428261C8
:2044A000C3614FF4003202624362FDF7ADFD20B9054BE3629C6302B010BDFFF773FFF7E78A
:2044C000000400400038024074F60020B860024000B587B00023019302930393049305933D
:2044E00002680F4B9A4202D007B05DF804FB002300930C4A116B41F002011163126B02F0A0
:2045000002020092009A012201920222029203930493059201A90448FEF70CF8E4E700BFC0
:2045200000040040003802400004024000B58BB0002308930993019302930393049305933F
:20454000069307931748184A0260436083605D22C260036180238361FEF792FFC8B90023C9
:204560000893099308A90F48FFF70CFBA0B9602301930023029303930593082201A9094884
:20458000FFF762F858B90748FFF7A2FF0BB05DF804FBFFF707FFE2E7FFF704FFE7E7FFF743
:2045A00001FFF0E7D4F600200004004070B50D4E0D4D761BB61006D0002455F8043B01340A
:2045C0009847A642F9D1094E094D00F0D3F8761BB61006D0002455F8043B01349847A64209
:2045E000F9D170BDE4490008E4490008EC490008E4490008F0B4860746D0541E002A3CD0F9
:204600000346CAB201E0013C37D303F8012B9D07F9D1032C2AD9CDB245EA05250F2C45EAA4
:20462000054534D9A4F1100222F00F0C03F120071609674403F1100242E9045542E902555E
:204640001032BA42F8D1721C14F00C0F03EB021204F00F0613D0331F23F0030304331344BF
:2046600042F8045B9342FBD106F003042CB1CAB21C4403F8012B9C42FBD1F0BC704734469C
:204680001346002CF3D1F8E714460346C1E71A462646E0E7024B13B1024800F005B8704755
:2046A00000000000B5460008002301461A46184600F01AB838B5084B084D5B1B9C1007D07F
:2046C000043B1D44013C55F804399847002CF9D1BDE8384000F054B8F0490008EC49000807
:2046E000704700BF704700BF2DE9F047DFF880A00646DAF8000098460F469146FFF7F0FF7D
:204700001A4B1B68D3F8484124B365681F2D26DC5EB96B1C0235DAF80000636044F8257030
:20472000FFF7E0FF0020BDE8F087012304EB8501C1F88890D4F88821AB401A43022EC4F855
:204740008821C1F80881E4D1D4F88C211343C4F88C31DEE703F5A674C3F84841D5E7DAF8C8
:204760000000FFF7BFFF4FF0FF30DCE7D8490008880A0020F8B500BFF8BC08BC9E467047FA
:20478000F8B500BFF8BC08BC9E467047A80A0020CCF300204C0B0020AC0B00206B0200002E
:2047A000723A0000000000108C470008D4F600200800000045000000220000002E2E2F443A
:2047C0007269766572732F53544D3332463478785F48414C5F4472697665722F5372632FC7
:2047E00073746D3332663478785F68616C5F6164632E63002E2E2F447269766572732F53DE
:20480000544D3332463478785F48414C5F4472697665722F5372632F73746D3332663478D8
:20482000785F68616C5F636F727465782E6300002E2E2F447269766572732F53544D3332F5
:20484000463478785F48414C5F4472697665722F5372632F73746D3332663478785F6861FE
:204860006C5F6372632E63002E2E2F447269766572732F53544D3332463478785F48414C14
:204880005F4472697665722F5372632F73746D3332663478785F68616C5F646D612E6300CE
:2048A00000061016000610162E2E2F447269766572732F53544D3332463478785F48414C10
:2048C0005F4472697665722F5372632F73746D3332663478785F68616C5F6770696F2E6311
:2048E000000000002E2E2F447269766572732F53544D3332463478785F48414C5F447269AA
:204900007665722F5372632F73746D3332663478785F68616C5F7263632E63002E2E2F44F6
:204920007269766572732F53544D3332463478785F48414C5F4472697665722F5372632F65
:2049400073746D3332663478785F68616C5F726E672E63002E2E2F447269766572732F535D
:20496000544D3332463478785F48414C5F4472697665722F5372632F73746D333266347877
:20498000785F68616C5F74696D2E63002E2E2F447269766572732F53544D33324634787875
:2049A0005F48414C5F4472697665722F5372632F73746D3332663478785F68616C5F74695F
:2049C0006D5F65782E6300000000000000000000010203040607080960060020BCB8FF7FFD
:2049E0000100000095460008AD01000889010008FF020000A8F50020C8F50020E8F50020F3
:204A000000000000A8F4002028F5002000000000C8F4002048F5002000000000E8F4002068
:204A200068F500200000000008F5002088F50020000000000300000001000000010000003A
:204A40006400640001000000100000000024F400000000004C090020B40900201C0A0020CD
:204A6000000000000000000000000000000000000000000000000000000000000000000036
:204A8000000000000000000000000000000000000000000000000000000000000000000016
:204AA0000000000000000000000000000000000000000000000000000000000000000000F6
:204AC0000000000000000000000000000000000000000000000000000000000000000000D6
:204AE0000000000000000000000000000000000000000000000000000100000000000000B5
:204B00000E33CDAB34126DE6ECDE05000B0000000000000000000000000000000000000069
:204B2000000000000000000000000000000000000000000000000000000000000000000075
:204B4000000000000000000000000000000000000000000000000000000000000000000055
:204B6000000000000000000000000000000000000000000000000000000000000000000035
:204B8000000000000000000000000000000000000000000000000000000000000000000015
:204BA0000000000000000000000000000000000000000000000000000000000000000000F5
:204BC0000000000000000000000000000000000000000000000000000000000000000000D5
:204BE0000000000000000000000000000000000000000000000000000000000000000000B5
:204C0000000000000000000000000000000000000000000000000000000000000000000094
:204C2000000000000000000000000000000000000000000000000000000000000000000074
:204C4000000000000000000000000000000000000000000000000000000000000000000054
:204C6000000000000000000000000000000000000000000000000000000000000000000034
:204C8000000000000000000000000000000000000000000000000000000000000000000014
:204CA0000000000000000000000000000000000000000000000000000000000000000000F4
:204CC0000000000000000000000000000000000000000000000000000000000000000000D4
:204CE0000000000000000000000000000000000000000000000000000000000000000000B4
:204D0000000000000000000000000000000000000000000000000000000000000000000093
:204D2000000000000000000000000000000000000000000000000000000000000000000073
:204D4000000000000000000000000000000000000000000000000000000000000000000053
:204D6000000000000000000000000000000000000000000000000000000000000000000033
:204D8000000000000000000000000000000000000000000000000000000000000000000013
:204DA0000000000000000000000000000000000000000000000000000000000000000000F3
:204DC0000000000000000000000000000000000000000000000000000000000000000000D3
:204DE0000000000000000000000000000000000000000000000000000000000000000000B3
:204E0000000000000000000000000000000000000000000000000000000000000000000092
:204E2000000000000000000000000000000000000000000000000000000000000000000072
:204E4000000000000000000000000000000000000000000000000000000000000000000052
:204E600000000000000000000000000000000000000000000000000054F7002000000000C7
:204E8000000000000000000000000000000000000000000000000000000000000000000012
:204EA0000000000000000000000000000000000000000000000000000000000000000000F2
:204EC0000000000000000000000000000000000000000000000000000000000000000000D2
:204EE0000000000000000000000000000000000000000000000000000000000000000000B2
:209960000000000000000000000000000000000000000000FFFFFFFFFFFFFFFFFFFFFFFFF3
:20998000FFFFFFFFFFFFFFFFFFFFFFFFFFFFFFFFFFFFFFFFFFFFFFFFFFFFFFFFFFFFFFFFE7
:2099A000FFFFFFFFFFFFFFFFFFFFFFFFFFFFFFFFFFFFFFFFFFFFFFFFFFFFFFFFFFFFFFFFC7
:2099C000FFFFFFFFFFFFFFFFFFFFFFFFFFFFFFFFFFFFFFFFFFFFFFFFFFFFFFFFFFFFFFFFA7
:2099E000FFFFFFFFFFFFFFFFFFFFFFFFFFFFFFFFFFFFFFFFFFFFFFFFFFFFFFFFFFFFFFFF87
:20C00000948C12BF448F12BFF49112BFA49412BF539712BF039A12BFB39C12BF629F12BF11
:20C0200012A212BFC2A412BF71A712BF21AA12BFD0AC12BF80AF12BF2FB212BFDFB412BF5C
:20C040008EB712BF3EBA12BFEDBC12BF9CBF12BF4CC212BFFBC412BFAAC712BF5ACA12BFB5
:20C0600009CD12BFB8CF12BF67D212BF16D512BFC5D712BF75DA12BF24DD12BFD3DF12BF19
:20C0800082E212BF31E512BFE0E712BF8FEA12BF3EED12BFEDEF12BF9CF212BF4BF512BF89
:20C0A000F9F712BFA8FA12BF57FD12BF060013BFB50213BF630513BF120813BFC10A13BF03
:20C0C0006F0D13BF1E1013BFCD1213BF7B1513BF2A1813BFD81A13BF871D13BF352013BF8A
:20C0E000E42213BF922513BF412813BFEF2A13BF9E2D13BF4C3013BFFA3213BFA93513BF20
:20C10000573813BF053B13BFB33D13BF624013BF104313BFBE4513BF6C4813BF1A4B13BFBF
:20C12000C84D13BF765013BF245313BFD25513BF805813BF2E5B13BFDC5D13BF8A6013BF72
:20C14000386313BFE66513BF946813BF426B13BFEF6D13BF9D7013BF4B7313BFF97513BF2B
:20C16000A67813BF547B13BF027E13BFAF8013BF5D8313BF0B8613BFB88813BF668B13BFF1
:20C18000138E13BFC19013BF6E9313BF1C9613BFC99813BF769B13BF249E13BFD1A013BFC5
:20C1A0007EA313BF2CA613BFD9A813BF86AB13BF33AE13BFE1B013BF8EB313BF3BB613BFA6
:20C1C000E8B813BF95BB13BF42BE13BFEFC013BF9CC313BF49C613BFF6C813BFA3CB13BF96
:20C1E00050CE13BFFDD013BFAAD313BF57D613BF04D913BFB0DB13BF5DDE13BF0AE113BF8C
:20C20000B7E313BF63E613BF10E913BFBDEB13BF69EE13BF16F113BFC3F313BF6FF613BF91
:20C220001CF913BFC8FB13BF75FE13BF210114BFCE0314BF7A0614BF260914BFD30B14BF9E
:20C240007F0E14BF2B1114BFD81314BF841614BF301914BFDD1B14BF891E14BF352114BFBA
:20C26000E12314BF8D2614BF392914BFE52B14BF912E14BF3D3114BFE93314BF953614BFE9
:20C28000413914BFED3B14BF993E14BF454114BFF14314BF9D4614BF494914BFF44B14BF1F
:20C2A000A04E14BF4C5114BFF85314BFA35614BF4F5914BFFB5B14BFA65E14BF526114BF62
:20C2C000FD6314BFA96614BF556914BF006C14BFAC6E14BF577114BF027414BFAE7614BFB1
:20C2E000597914BF057C14BFB07E14BF5B8114BF068414BFB28614BF5D8914BF088C14BF0D
:20C30000B38E14BF5E9114BF0A9414BFB59614BF609914BF0B9C14BFB69E14BF61A114BF76
:20C320000CA414BFB7A614BF62A914BF0DAC14BFB8AE14BF62B114BF0DB414BFB8B614BFEC
:20C3400063B914BF0EBC14BFB8BE14BF63C114BF0EC414BFB8C614BF63C914BF0ECC14BF6F
:20C36000B8CE14BF63D114BF0DD414BFB8D614BF62D914BF0DDC14BFB7DE14BF62E114BF00
:20C380000CE414BFB7E614BF61E914BF0BEC14BFB6EE14BF60F114BF0AF414BFB4F614BF9A
:20C3A0005FF914BF09FC14BFB3FE14BF5D0115BF070415BFB10615BF5B0915BF050C15BF3D
:20C3C000AF0E15BF591115BF031415BFAD1615BF571915BF011C15BFAB1E15BF552115BFF0
:20C3E000FF2315BFA82615BF522915BFFC2B15BFA62E15BF4F3115BFF93315BFA33615BFB2
:20C400004C3915BFF63B15BF9F3E15BF494115BFF24315BF9C4615BF454915BFEF4B15BF80
:20C42000984E15BF425115BFEB5315BF945615BF3E5915BFE75B15BF905E15BF3A6115BF59
:20C44000E36315BF8C6615BF356915BFDE6B15BF876E15BF317115BFDA7315BF837615BF40
:20C460002C7915BFD57B15BF7E7E15BF278115BFD08315BF798615BF218915BFCA8B15BF32
:20C48000738E15BF1C9115BFC59315BF6D9615BF169915BFBF9B15BF689E15BF10A115BF33
:20C4A000B9A315BF62A615BF0AA915BFB3AB15BF5BAE15BF04B115BFACB315BF55B615BF3F
:20C4C000FDB815BFA6BB15BF4EBE15BFF6C015BF9FC315BF47C615BFEFC815BF98CB15BF5B
:20C4E00040CE15BFE8D015BF90D315BF38D615BFE1D815BF89DB15BF31DE15BFD9E015BF80
:20C5000081E315BF29E615BFD1E815BF79EB15BF21EE15BFC9F015BF71F315BF19F615BFB0
:20C52000C0F815BF68FB15BF10FE15BFB80016BF600316BF070616BFAF0816BF570B16BFEC
:20C54000FE0D16BFA61016BF4E1316BFF51516BF9D1816BF441B16BFEC1D16BF932016BF37
:20C560003B2316BFE22516BF8A2816BF312B16BFD82D16BF803016BF273316BFCE3516BF8E
:20C58000763816BF1D3B16BFC43D16BF6B4016BF124316BFBA4516BF614816BF084B16BFF1
:20C5A000AF4D16BF565016BFFD5216BFA45516BF4B5816BFF25A16BF995D16BF406016BF64
:20C5C000E76216BF8D6516BF346816BFDB6A16BF826D16BF297016BFCF7216BF767516BFE3
:20C5E0001D7816BFC37A16BF6A7D16BF108016BFB78216BF5E8516BF048816BFAB8A16BF6D
:20C60000518D16BFF88F16BF9E9216BF449516BFEB9716BF919A16BF379D16BFDE9F16BF06
:20C6200084A216BF2AA516BFD1A716BF77AA16BF1DAD16BFC3AF16BF69B216BF0FB516BFA9
:20C64000B5B716BF5BBA16BF01BD16BFA7BF16BF4DC216BFF3C416BF99C716BF3FCA16BF5E
:20C66000E5CC16BF8BCF16BF31D216BFD7D416BF7CD716BF22DA16BFC8DC16BF6EDF16BF19
:20C6800013E216BFB9E416BF5FE716BF04EA16BFAAEC16BF4FEF16BFF5F116BF9AF416BFE4
:20C6A00040F716BFE5F916BF8BFC16BF30FF16BFD60117BF7B0417BF200717BFC60917BFB7
:20C6C0006B0C17BF100F17BFB51117BF5B1417BF001717BFA51917BF4A1C17BFEF1E17BF97
:20C6E000942117BF392417BFDF2617BF842917BF292C17BFCE2E17BF723117BF173417BF87
:20C70000BC3617BF613917BF063C17BFAB3E17BF504117BFF44317BF994617BF3E4917BF84
:20C72000E34B17BF874E17BF2C5117BFD05317BF755617BF1A5917BFBE5B17BF635E17BF8E
:20C74000076117BFAC6317BF506617BFF56817BF996B17BF3D6E17BFE27017BF867317BFA5
:20C760002A7617BFCF7817BF737B17BF177E17BFBB8017BF5F8317BF048617BFA88817BFC8
:20C780004C8B17BFF08D17BF949017BF389317BFDC9517BF809817BF249B17BFC89D17BFF9
:20C7A0006CA017BF10A317BFB3A517BF57A817BFFBAA17BF9FAD17BF43B017BFE6B217BF37
:20C7C0008AB517BF2EB817BFD1BA17BF75BD17BF19C017BFBCC217BF60C517BF03C817BF80
:20C7E000A7CA17BF4ACD17BFEECF17BF91D217BF35D517BFD8D717BF7BDA17BF1FDD17BFD7
:20C80000C2DF17BF65E217BF08E517BFACE717BF4FEA17BFF2EC17BF95EF17BF38F217BF3B
:20C82000DBF417BF7FF717BF22FA17BFC5FC17BF68FF17BF0B0218BFAE0418BF510718BFA5
:20C84000F30918BF960C18BF390F18BFDC1118BF7F1418BF221718BFC41918BF671C18BF21
:20C860000A1F18BFAC2118BF4F2418BFF22618BF942918BF372C18BFDA2E18BF7C3118BFAA
:20C880001F3418BFC13618BF643918BF063C18BFA83E18BF4B4118BFED4318BF8F4618BF40
:20C8A000324918BFD44B18BF764E18BF195118BFBB5318BF5D5618BFFF5818BFA15B18BFE4
:20C8C000435E18BFE56018BF876318BF296618BFCB6818BF6D6B18BF0F6E18BFB17018BF98
:20C8E000537318BFF57518BF977818BF397B18BFDB7D18BF7C8018BF1E8318BFC08518BF53
:20C90000628818BF038B18BFA58D18BF479018BFE89218BF8A9518BF2B9818BFCD9A18BF1B
:20C920006E9D18BF10A018BFB1A218BF53A518BFF4A718BF96AA18BF37AD18BFD8AF18BFF3
:20C940007AB218BF1BB518BFBCB718BF5DBA18BFFFBC18BFA0BF18BF41C218BFE2C418BFD6
:20C9600083C718BF24CA18BFC5CC18BF66CF18BF07D218BFA8D418BF49D718BFEAD918BFC9
:20C980008BDC18BF2CDF18BFCDE118BF6EE418BF0FE718BFAFE918BF50EC18BFF1EE18BFC4
:20C9A00092F118BF32F418BFD3F618BF74F918BF14FC18BFB5FE18BF550119BFF60319BFCC
:20C9C000960619BF370919BFD70B19BF780E19BF181119BFB81319BF591619BFF91819BFDF
:20C9E000991B19BF3A1E19BFDA2019BF7A2319BF1A2619BFBB2819BF5B2B19BFFB2D19BF03
:20CA00009B3019BF3B3319BFDB3519BF7B3819BF1B3B19BFBB3D19BF5B4019BFFB4219BF34
:20CA20009B4519BF3B4819BFDB4A19BF7B4D19BF1A5019BFBA5219BF5A5519BFFA5719BF70
:20CA4000995A19BF395D19BFD95F19BF786219BF186519BFB76719BF576A19BFF76C19BFBC
:20CA6000966F19BF367219BFD57419BF747719BF147A19BFB37C19BF537F19BFF28119BF13
:20CA8000918419BF308719BFD08919BF6F8C19BF0E8F19BFAD9119BF4C9419BFEC9619BF79
:20CAA0008B9919BF2A9C19BFC99E19BF68A119BF07A419BFA6A619BF45A919BFE4AB19BFE8
:20CAC00083AE19BF22B119BFC0B319BF5FB619BFFEB819BF9DBB19BF3BBE19BFDAC019BF69
:20CAE00079C319BF18C619BFB6C819BF55CB19BFF3CD19BF92D019BF31D319BFCFD519BFF4
:20CB00006ED819BF0CDB19BFABDD19BF49E019BFE7E219BF86E519BF24E819BFC2EA19BF8B
:20CB200061ED19BFFFEF19BF9DF219BF3BF519BFDAF719BF78FA19BF16FD19BFB4FF19BF31
:20CB400052021ABFF0041ABF8E071ABF2C0A1ABFCA0C1ABF680F1ABF06121ABFA4141ABFDD
:20CB600042171ABFE0191ABF7E1C1ABF1C1F1ABFB9211ABF57241ABFF5261ABF93291ABF9A
:20CB8000302C1ABFCE2E1ABF6C311ABF09341ABFA7361ABF44391ABFE23B1ABF7F3E1ABF67
:20CBA0001D411ABFBA431ABF58461ABFF5481ABF934B1ABF304E1ABFCD501ABF6B531ABF40
:20CBC00008561ABFA5581ABF425B1ABFE05D1ABF7D601ABF1A631ABFB7651ABF54681ABF26
:20CBE000F16A1ABF8E6D1ABF2B701ABFC8721ABF65751ABF02781ABF9F7A1ABF3C7D1ABF1C
:20CC0000D97F1ABF76821ABF13851ABFAF871ABF4C8A1ABFE98C1ABF868F1ABF22921ABF1A
:20CC2000BF941ABF5C971ABFF8991ABF959C1ABF329F1ABFCEA11ABF6BA41ABF07A71ABF27
:20CC4000A4A91ABF40AC1ABFDCAE1ABF79B11ABF15B41ABFB2B61ABF4EB91ABFEABB1ABF42
:20CC600086BE1ABF23C11ABFBFC31ABF5BC61ABFF7C81ABF93CB1ABF30CE1ABFCCD01ABF6A
:20CC800068D31ABF04D61ABFA0D81ABF3CDB1ABFD8DD1ABF74E01ABF10E31ABFACE51ABF9B
:20CCA00047E81ABFE3EA1ABF7FED1ABF1BF01ABFB7F21ABF52F51ABFEEF71ABF8AFA1ABFE0
:20CCC00025FD1ABFC1FF1ABF5D021BBFF8041BBF94071BBF2F0A1BBFCB0C1BBF660F1BBF29
:20CCE00002121BBF9D141BBF39171BBFD4191BBF6F1C1BBF0B1F1BBFA6211BBF41241BBF81
:20CD0000DD261BBF78291BBF132C1BBFAE2E1BBF49311BBFE4331BBF80361BBF1B391BBFE9
:20CD2000B63B1BBF513E1BBFEC401BBF87431BBF22461BBFBD481BBF584B1BBFF24D1BBF5E
:20CD40008D501BBF28531BBFC3551BBF5E581BBFF85A1BBF935D1BBF2E601BBFC8621BBFE3
:20CD600063651BBFFE671BBF986A1BBF336D1BBFCD6F1BBF68721BBF02751BBF9D771BBF73
:20CD8000377A1BBFD27C1BBF6C7F1BBF07821BBFA1841BBF3B871BBFD6891BBF708C1BBF0E
:20CDA0000A8F1BBFA4911BBF3E941BBFD9961BBF73991BBF0D9C1BBFA79E1BBF41A11BBFB8
:20CDC000DBA31BBF75A61BBF0FA91BBFA9AB1BBF43AE1BBFDDB01BBF77B31BBF11B61BBF6F
:20CDE000AAB81BBF44BB1BBFDEBD1BBF78C01BBF11C31BBFABC51BBF45C81BBFDECA1BBF36
:20CE000078CD1BBF12D01BBFABD21BBF45D51BBFDED71BBF78DA1BBF11DD1BBFABDF1BBF05
:20CE200044E21BBFDEE41BBF77E71BBF10EA1BBFAAEC1BBF43EF1BBFDCF11BBF75F41BBFE4
:20CE40000FF71BBFA8F91BBF41FC1BBFDAFE1BBF73011CBF0C041CBFA5061CBF3E091CBFCC
:20CE6000D70B1CBF700E1CBF09111CBFA2131CBF3B161CBFD4181CBF6D1B1CBF061E1CBFC2
:20CE80009F201CBF37231CBFD0251CBF69281CBF022B1CBF9A2D1CBF33301CBFCC321CBFC6
:20CEA00064351CBFFD371CBF953A1CBF2E3D1CBFC63F1CBF5F421CBFF7441CBF90471CBFDB
:20CEC000284A1CBFC14C1CBF594F1CBFF1511CBF8A541CBF22571CBFBA591CBF525C1CBFF9
:20CEE000EA5E1CBF83611CBF1B641CBFB3661CBF4B691CBFE36B1CBF7B6E1CBF13711CBF27
:20CF0000AB731CBF43761CBFDB781CBF737B1CBF0B7E1CBFA3801CBF3A831CBFD2851CBF61
:20CF20006A881CBF028B1CBF9A8D1CBF31901CBFC9921CBF61951CBFF8971CBF909A1CBFA8
:20CF4000279D1CBFBF9F1CBF57A21CBFEEA41CBF85A71CBF1DAA1CBFB4AC1CBF4CAF1CBFFE
:20CF6000E3B11CBF7AB41CBF12B71CBFA9B91CBF40BC1CBFD8BE1CBF6FC11CBF06C41CBF60
:20CF80009DC61CBF34C91CBFCBCB1CBF63CE1CBFFAD01CBF91D31CBF28D61CBFBFD81CBFCF
:20CFA00056DB1CBFEDDD1CBF83E01CBF1AE31CBFB1E51CBF48E81CBFDFEA1CBF76ED1CBF4C
:20CFC0000CF01CBFA3F21CBF3AF51CBFD1F71CBF67FA1CBFFEFC1CBF94FF1CBF2B021DBFD5
:20CFE000C2041DBF58071DBFEF091DBF850C1DBF1C0F1DBFB2111DBF48141DBFDF161DBF64
:20D0000075191DBF0B1C1DBFA21E1DBF38211DBFCE231DBF64261DBFFB281DBF912B1DBF08
:20D02000272E1DBFBD301DBF53331DBFE9351DBF7F381DBF153B1DBFAB3D1DBF41401DBFBA
:20D04000D7421DBF6D451DBF03481DBF994A1DBF2F4D1DBFC44F1DBF5A521DBFF0541DBF78
:20D0600086571DBF1B5A1DBFB15C1DBF475F1DBFDC611DBF72641DBF07671DBF9D691DBF44
:20D08000336C1DBFC86E1DBF5D711DBFF3731DBF88761DBF1E791DBFB37B1DBF487E1DBF1E
:20D0A000DE801DBF73831DBF08861DBF9E881DBF338B1DBFC88D1DBF5D901DBFF2921DBF04
:20D0C00087951DBF1C981DBFB29A1DBF479D1DBFDC9F1DBF71A21DBF05A51DBF9AA71DBFF7
:20D0E0002FAA1DBFC4AC1DBF59AF1DBFEEB11DBF83B41DBF17B71DBFACB91DBF41BC1DBFF9
:20D10000D6BE1DBF6AC11DBFFFC31DBF94C61DBF28C91DBFBDCB1DBF51CE1DBFE6D01DBF06
:20D120007AD31DBF0FD61DBFA3D81DBF38DB1DBFCCDD1DBF60E01DBFF5E21DBF89E51DBF21
:20D140001DE81DBFB1EA1DBF46ED1DBFDAEF1DBF6EF21DBF02F51DBF96F71DBF2AFA1DBF4B
:20D16000BFFC1DBF53FF1DBFE7011EBF7B041EBF0F071EBFA3091EBF360C1EBFCA0E1EBF79
:20D180005E111EBFF2131EBF86161EBF1A191EBFAD1B1EBF411E1EBFD5201EBF69231EBFBC
:20D1A000FC251EBF90281EBF232B1EBFB72D1EBF4B301EBFDE321EBF72351EBF05381EBF0D
:20D1C000993A1EBF2C3D1EBFBF3F1EBF53421EBFE6441EBF79471EBF0D4A1EBFA04C1EBF6B
:20D1E000334F1EBFC6511EBF5A541EBFED561EBF80591EBF135C1EBFA65E1EBF39611EBFD7
:20D20000CC631EBF5F661EBFF2681EBF856B1EBF186E1EBFAB701EBF3E731EBFD1751EBF50
:20D2200064781EBFF67A1EBF897D1EBF1C801EBFAF821EBF41851EBFD4871EBF678A1EBFD5
:20D24000F98C1EBF8C8F1EBF1F921EBFB1941EBF44971EBFD6991EBF699C1EBFFB9E1EBF68
:20D260008DA11EBF20A41EBFB2A61EBF44A91EBFD7AB1EBF69AE1EBFFBB01EBF8EB31EBF0A
:20D2800020B61EBFB2B81EBF44BB1EBFD6BD1EBF68C01EBFFAC21EBF8CC51EBF1FC81EBFB8
:20D2A000B1CA1EBF42CD1EBFD4CF1EBF66D21EBFF8D41EBF8AD71EBF1CDA1EBFAEDC1EBF74
:20D2C00040DF1EBFD1E11EBF63E41EBFF5E61EBF86E91EBF18EC1EBFAAEE1EBF3BF11EBF3C
:20D2E000CDF31EBF5FF61EBFF0F81EBF82FB1EBF13FE1EBFA4001FBF36031FBFC7051FBF0F
:20D3000059081FBFEA0A1FBF7B0D1FBF0D101FBF9E121FBF2F151FBFC0171FBF521A1FBFEC
:20D32000E31C1FBF741F1FBF05221FBF96241FBF27271FBFB8291FBF492C1FBFDA2E1FBFDE
:20D340006B311FBFFC331FBF8D361FBF1E391FBFAF3B1FBF403E1FBFD0401FBF61431FBFDC
:20D36000F2451FBF83481FBF134B1FBFA44D1FBF35501FBFC5521FBF56551FBFE6571FBFE8
:20D38000775A1FBF075D1FBF985F1FBF28621FBFB9641FBF49671FBFDA691FBF6A6C1FBF01
:20D3A000FA6E1FBF8B711FBF1B741FBFAB761FBF3B791FBFCC7B1FBF5C7E1FBFEC801FBF28
:20D3C0007C831FBF0C861FBF9C881FBF2C8B1FBFBC8D1FBF4C901FBFDC921FBF6C951FBF5D
:20D3E000FC971FBF8C9A1FBF1C9D1FBFAC9F1FBF3BA21FBFCBA41FBF5BA71FBFEBA91FBF9E
:20D400007AAC1FBF0AAF1FBF9AB11FBF29B41FBFB9B61FBF48B91FBFD8BB1FBF68BE1FBFEC
:20D42000F7C01FBF86C31FBF16C61FBFA5C81FBF35CB1FBFC4CD1FBF53D01FBFE3D21FBF4A
:20D4400072D51FBF01D81FBF91DA1FBF20DD1FBFAFDF1FBF3EE21FBFCDE41FBF5CE71FBFB2
:20D46000EBE91FBF7AEC1FBF09EF1FBF98F11FBF27F41FBFB6F61FBF45F91FBFD4FB1FBF2D
:20D4800063FE1FBFF20020BF810320BF0F0620BF9E0820BF2D0B20BFBC0D20BF4A1020BFA8
:20D4A000D91220BF681520BFF61720BF851A20BF131D20BFA21F20BF302220BFBF2420BF3A
:20D4C0004D2720BFDC2920BF6A2C20BFF82E20BF873120BF153420BFA33620BF323920BFDA
:20D4E000C03B20BF4E3E20BFDC4020BF6A4320BFF94520BF874820BF154B20BFA34D20BF87
:20D50000315020BFBF5220BF4D5520BFDB5720BF695A20BFF75C20BF845F20BF126220BF40
:20D52000A06420BF2E6720BFBC6920BF496C20BFD76E20BF657120BFF27320BF807620BF0A
:20D540000E7920BF9B7B20BF297E20BFB68020BF448320BFD18520BF5F8820BFEC8A20BFDF
:20D560007A8D20BF079020BF949220BF229520BFAF9720BF3C9A20BFC99C20BF579F20BFC1
:20D58000E4A120BF71A420BFFEA620BF8BA920BF18AC20BFA5AE20BF32B120BFBFB320BFB5
:20D5A0004CB620BFD9B820BF66BB20BFF3BD20BF80C020BF0DC320BF9AC520BF26C820BFB2
:20D5C000B3CA20BF40CD20BFCDCF20BF59D220BFE6D420BF73D720BFFFD920BF8CDC20BFBE
:20D5E00018DF20BFA5E120BF31E420BFBEE620BF4AE920BFD7EB20BF63EE20BFEFF020BFD8
:20D600007CF320BF08F620BF94F820BF21FB20BFADFD20BF390021BFC50221BF510521BFFA
:20D62000DE0721BF6A0A21BFF60C21BF820F21BF0E1221BF9A1421BF261721BFB21921BF28
:20D640003E1C21BFCA1E21BF552121BFE12321BF6D2621BFF92821BF852B21BF102E21BF6C
:20D660009C3021BF283321BFB33521BF3F3821BFCB3A21BF563D21BFE23F21BF6D4221BFBC
:20D68000F94421BF844721BF104A21BF9B4C21BF264F21BFB25121BF3D5421BFC95621BF19
:20D6A000545921BFDF5B21BF6A5E21BFF56021BF816321BF0C6621BF976821BF226B21BF84
:20D6C000AD6D21BF387021BFC37221BF4E7521BFD97721BF647A21BFEF7C21BF7A7F21BFFE
:20D6E000058221BF908421BF1A8721BFA58921BF308C21BFBB8E21BF459121BFD09321BF82
:20D700005B9621BFE59821BF709B21BFFA9D21BF85A021BF10A321BF9AA521BF25A821BF15
:20D72000AFAA21BF39AD21BFC4AF21BF4EB221BFD8B421BF63B721BFEDB921BF77BC21BFB8
:20D7400001BF21BF8CC121BF16C421BFA0C621BF2AC921BFB4CB21BF3ECE21BFC8D021BF66
:20D7600052D321BFDCD521BF66D821BFF0DA21BF7ADD21BF04E021BF8EE221BF18E521BF23
:20D78000A2E721BF2BEA21BFB5EC21BF3FEF21BFC8F121BF52F421BFDCF621BF65F921BFED
:20D7A000EFFB21BF79FE21BF020122BF8C0322BF150622BF9F0822BF280B22BFB10D22BFBD
:20D7C0003B1022BFC41222BF4D1522BFD71722BF601A22BFE91C22BF721F22BFFC2122BFA3
:20D7E000852422BF0E2722BF972922BF202C22BFA92E22BF323122BFBB3322BF443622BF95
:20D80000CD3822BF563B22BFDF3D22BF684022BFF14222BF7A4522BF024822BF8B4A22BF95
:20D82000144D22BF9D4F22BF255222BFAE5422BF375722BFBF5922BF485C22BFD05E22BFA2
:20D84000596122BFE16322BF6A6622BFF26822BF7B6B22BF036E22BF8B7022BF147322BFBF
:20D860009C7522BF247822BFAD7A22BF357D22BFBD7F22BF458222BFCD8422BF568722BFE9
:20D88000DE8922BF668C22BFEE8E22BF769122BFFE9322BF869622BF0E9922BF969B22BF1F
:20D8A0001D9E22BFA5A022BF2DA322BFB5A522BF3DA822BFC5AA22BF4CAD22BFD4AF22BF66
:20D8C0005CB222BFE3B422BF6BB722BFF2B922BF7ABC22BF02BF22BF89C122BF11C422BFB8
:20D8E00098C622BF1FC922BFA7CB22BF2ECE22BFB6D022BF3DD322BFC4D522BF4CD822BF19
:20D90000D3DA22BF5ADD22BFE1DF22BF68E222BFF0E422BF77E722BFFEE922BF85EC22BF87
:20D920000CEF22BF93F122BF1AF422BFA1F622BF28F922BFAFFB22BF35FE22BFBC0023BF00
:20D94000430323BFCA0523BF510823BFD70A23BF5E0D23BFE50F23BF6B1223BFF21423BF86
:20D96000791723BFFF1923BF861C23BF0C1F23BF932123BF192423BFA02623BF262923BF1C
